{
  "contractName": "DStorage",
  "abi": [
    {
      "inputs": [],
      "payable": false,
      "stateMutability": "nonpayable",
      "type": "constructor"
    },
    {
      "anonymous": false,
      "inputs": [
        {
          "indexed": false,
          "internalType": "uint256",
          "name": "id",
          "type": "uint256"
        },
        {
          "indexed": false,
          "internalType": "string",
          "name": "fileHash",
          "type": "string"
        },
        {
          "indexed": false,
          "internalType": "uint256",
          "name": "fileSize",
          "type": "uint256"
        },
        {
          "indexed": false,
          "internalType": "string",
          "name": "fileType",
          "type": "string"
        },
        {
          "indexed": false,
          "internalType": "string",
          "name": "fileName",
          "type": "string"
        },
        {
          "indexed": false,
          "internalType": "string",
          "name": "fileDescription",
          "type": "string"
        },
        {
          "indexed": false,
          "internalType": "uint256",
          "name": "uploadTime",
          "type": "uint256"
        },
        {
          "indexed": false,
          "internalType": "address payable",
          "name": "uploader",
          "type": "address"
        }
      ],
      "name": "FileUploaded",
      "type": "event"
    },
    {
      "constant": true,
      "inputs": [
        {
          "internalType": "uint256",
          "name": "",
          "type": "uint256"
        }
      ],
      "name": "files",
      "outputs": [
        {
          "internalType": "uint256",
          "name": "id",
          "type": "uint256"
        },
        {
          "internalType": "string",
          "name": "fileHash",
          "type": "string"
        },
        {
          "internalType": "uint256",
          "name": "fileSize",
          "type": "uint256"
        },
        {
          "internalType": "string",
          "name": "fileType",
          "type": "string"
        },
        {
          "internalType": "string",
          "name": "fileName",
          "type": "string"
        },
        {
          "internalType": "string",
          "name": "fileDescription",
          "type": "string"
        },
        {
          "internalType": "uint256",
          "name": "uploadTime",
          "type": "uint256"
        },
        {
          "internalType": "address payable",
          "name": "uploader",
          "type": "address"
        }
      ],
      "payable": false,
      "stateMutability": "view",
      "type": "function"
    },
    {
      "constant": true,
      "inputs": [],
      "name": "filesCount",
      "outputs": [
        {
          "internalType": "uint256",
          "name": "",
          "type": "uint256"
        }
      ],
      "payable": false,
      "stateMutability": "view",
      "type": "function"
    },
    {
      "constant": true,
      "inputs": [],
      "name": "name",
      "outputs": [
        {
          "internalType": "string",
          "name": "",
          "type": "string"
        }
      ],
      "payable": false,
      "stateMutability": "view",
      "type": "function"
    },
    {
      "constant": false,
      "inputs": [
        {
          "internalType": "string",
          "name": "_fileHash",
          "type": "string"
        },
        {
          "internalType": "uint256",
          "name": "_fileSize",
          "type": "uint256"
        },
        {
          "internalType": "string",
          "name": "_fileType",
          "type": "string"
        },
        {
          "internalType": "string",
          "name": "_fileName",
          "type": "string"
        },
        {
          "internalType": "string",
          "name": "_fileDescription",
          "type": "string"
        }
      ],
      "name": "uploadFile",
      "outputs": [],
      "payable": false,
      "stateMutability": "nonpayable",
      "type": "function"
    }
  ],
  "bytecode": "0x60806040526040518060400160405280600881526020017f4453746f726167650000000000000000000000000000000000000000000000008152506000908051906020019061004f929190610067565b50600060015534801561006157600080fd5b5061010c565b828054600181600116156101000203166002900490600052602060002090601f016020900481019282601f106100a857805160ff19168380011785556100d6565b828001600101855582156100d6579182015b828111156100d55782518255916020019190600101906100ba565b5b5090506100e391906100e7565b5090565b61010991905b808211156101055760008160009055506001016100ed565b5090565b90565b610e0d8061011b6000396000f3fe608060405234801561001057600080fd5b506004361061004c5760003560e01c806306fdde0314610051578063dfb5e9ba146100d4578063e82d9d33146100f2578063f4c714b41461037c575b600080fd5b6100596105af565b6040518080602001828103825283818151815260200191508051906020019080838360005b8381101561009957808201518184015260208101905061007e565b50505050905090810190601f1680156100c65780820380516001836020036101000a031916815260200191505b509250505060405180910390f35b6100dc61064d565b6040518082815260200191505060405180910390f35b61037a600480360360a081101561010857600080fd5b810190808035906020019064010000000081111561012557600080fd5b82018360208201111561013757600080fd5b8035906020019184600183028401116401000000008311171561015957600080fd5b91908080601f016020809104026020016040519081016040528093929190818152602001838380828437600081840152601f19601f82011690508083019250505050505050919291929080359060200190929190803590602001906401000000008111156101c657600080fd5b8201836020820111156101d857600080fd5b803590602001918460018302840111640100000000831117156101fa57600080fd5b91908080601f016020809104026020016040519081016040528093929190818152602001838380828437600081840152601f19601f8201169050808301925050505050505091929192908035906020019064010000000081111561025d57600080fd5b82018360208201111561026f57600080fd5b8035906020019184600183028401116401000000008311171561029157600080fd5b91908080601f016020809104026020016040519081016040528093929190818152602001838380828437600081840152601f19601f820116905080830192505050505050509192919290803590602001906401000000008111156102f457600080fd5b82018360208201111561030657600080fd5b8035906020019184600183028401116401000000008311171561032857600080fd5b91908080601f016020809104026020016040519081016040528093929190818152602001838380828437600081840152601f19601f820116905080830192505050505050509192919290505050610653565b005b6103a86004803603602081101561039257600080fd5b8101908080359060200190929190505050610a6b565b60405180898152602001806020018881526020018060200180602001806020018781526020018673ffffffffffffffffffffffffffffffffffffffff1673ffffffffffffffffffffffffffffffffffffffff16815260200185810385528c818151815260200191508051906020019080838360005b8381101561043857808201518184015260208101905061041d565b50505050905090810190601f1680156104655780820380516001836020036101000a031916815260200191505b5085810384528a818151815260200191508051906020019080838360005b8381101561049e578082015181840152602081019050610483565b50505050905090810190601f1680156104cb5780820380516001836020036101000a031916815260200191505b50858103835289818151815260200191508051906020019080838360005b838110156105045780820151818401526020810190506104e9565b50505050905090810190601f1680156105315780820380516001836020036101000a031916815260200191505b50858103825288818151815260200191508051906020019080838360005b8381101561056a57808201518184015260208101905061054f565b50505050905090810190601f1680156105975780820380516001836020036101000a031916815260200191505b509c5050505050505050505050505060405180910390f35b60008054600181600116156101000203166002900480601f0160208091040260200160405190810160405280929190818152602001828054600181600116156101000203166002900480156106455780601f1061061a57610100808354040283529160200191610645565b820191906000526020600020905b81548152906001019060200180831161062857829003601f168201915b505050505081565b60015481565b600085511161066157600080fd5b600083511161066f57600080fd5b600081511161067d57600080fd5b600082511161068b57600080fd5b600073ffffffffffffffffffffffffffffffffffffffff163373ffffffffffffffffffffffffffffffffffffffff1614156106c557600080fd5b600084116106d257600080fd5b6000429050600033905060016000815480929190600101919050555060405180610100016040528060015481526020018881526020018781526020018681526020018581526020018481526020018381526020018273ffffffffffffffffffffffffffffffffffffffff1681525060026000600154815260200190815260200160002060008201518160000155602082015181600101908051906020019061077b929190610d33565b506040820151816002015560608201518160030190805190602001906107a2929190610d33565b5060808201518160040190805190602001906107bf929190610d33565b5060a08201518160050190805190602001906107dc929190610d33565b5060c0820151816006015560e08201518160070160006101000a81548173ffffffffffffffffffffffffffffffffffffffff021916908373ffffffffffffffffffffffffffffffffffffffff1602179055509050507f6e95bbaa37a5fdec42a312e049dea2fe6160ebe659214d3409b4f91f164c2f526001548888888888888860405180898152602001806020018881526020018060200180602001806020018781526020018673ffffffffffffffffffffffffffffffffffffffff1673ffffffffffffffffffffffffffffffffffffffff16815260200185810385528c818151815260200191508051906020019080838360005b838110156108ec5780820151818401526020810190506108d1565b50505050905090810190601f1680156109195780820380516001836020036101000a031916815260200191505b5085810384528a818151815260200191508051906020019080838360005b83811015610952578082015181840152602081019050610937565b50505050905090810190601f16801561097f5780820380516001836020036101000a031916815260200191505b50858103835289818151815260200191508051906020019080838360005b838110156109b857808201518184015260208101905061099d565b50505050905090810190601f1680156109e55780820380516001836020036101000a031916815260200191505b50858103825288818151815260200191508051906020019080838360005b83811015610a1e578082015181840152602081019050610a03565b50505050905090810190601f168015610a4b5780820380516001836020036101000a031916815260200191505b509c5050505050505050505050505060405180910390a150505050505050565b6002602052806000526040600020600091509050806000015490806001018054600181600116156101000203166002900480601f016020809104026020016040519081016040528092919081815260200182805460018160011615610100020316600290048015610b1d5780601f10610af257610100808354040283529160200191610b1d565b820191906000526020600020905b815481529060010190602001808311610b0057829003601f168201915b505050505090806002015490806003018054600181600116156101000203166002900480601f016020809104026020016040519081016040528092919081815260200182805460018160011615610100020316600290048015610bc15780601f10610b9657610100808354040283529160200191610bc1565b820191906000526020600020905b815481529060010190602001808311610ba457829003601f168201915b505050505090806004018054600181600116156101000203166002900480601f016020809104026020016040519081016040528092919081815260200182805460018160011615610100020316600290048015610c5f5780601f10610c3457610100808354040283529160200191610c5f565b820191906000526020600020905b815481529060010190602001808311610c4257829003601f168201915b505050505090806005018054600181600116156101000203166002900480601f016020809104026020016040519081016040528092919081815260200182805460018160011615610100020316600290048015610cfd5780601f10610cd257610100808354040283529160200191610cfd565b820191906000526020600020905b815481529060010190602001808311610ce057829003601f168201915b5050505050908060060154908060070160009054906101000a900473ffffffffffffffffffffffffffffffffffffffff16905088565b828054600181600116156101000203166002900490600052602060002090601f016020900481019282601f10610d7457805160ff1916838001178555610da2565b82800160010185558215610da2579182015b82811115610da1578251825591602001919060010190610d86565b5b509050610daf9190610db3565b5090565b610dd591905b80821115610dd1576000816000905550600101610db9565b5090565b9056fea265627a7a72315820435ca2db34313709b744e2ab80e1f407b7a993e864d788a50d0d9f4e7b4a76b464736f6c63430005100032",
  "source": "pragma solidity ^0.5.0;\n\ncontract DStorage {\n    string public name = \"DStorage\";\n    uint public filesCount = 0;\n    /* Struct is a own Data Type in Solidity */\n    /* Struct for Files */\n    struct File {\n        uint id;\n        string fileHash;\n        uint fileSize;\n        string fileType;\n        string fileName;\n        string fileDescription;\n        uint uploadTime;\n        /* Keyword payable because the Uploader can be donated for his Upload */\n        address payable uploader;\n    }\n\n    /* Event for File uploaded */\n    event FileUploaded (\n        uint id,\n        string fileHash,\n        uint fileSize,\n        string fileType,\n        string fileName,\n        string fileDescription,\n        uint uploadTime,\n    /* Keyword payable because the Uploader can be donated for his Upload */\n        address payable uploader\n    );\n\n    /* Mapping is a Key-Value Store */\n    /*\n        For Example:\n        Key: 1 => Value: QmR8cfu6n4NT5xRr2AHdKxFMeZEJrA44qgrBCr739BN9Wb\n        Key: 2 => Value: wRs4gFbv6nrt4NT5xRr2AHdKxFMeZEJrA44qgrBCr739BT\n    */\n    mapping(uint => File) public files;\n\n    constructor() public {\n    }\n\n    /*\n          Convention:\n        - Local Variable (like Arguments that are passed) have an Underscore\n        - State Variable (like Variables in a Function) have no Underscore\n   */\n    function uploadFile(\n        string memory _fileHash,\n        uint _fileSize,\n        string memory _fileType,\n        string memory _fileName,\n        string memory _fileDescription\n    /* Keyword public make the Function accessible from Outside the Smart Contract - for Example from the Front End */\n    ) public {\n        /* Requirements */\n        /* Make sure the File Hash exists */\n        require(bytes(_fileHash).length > 0);\n        /* Make sure File Type exists */\n        require(bytes(_fileType).length > 0);\n        /* Make sure File Description exists */\n        require(bytes(_fileDescription).length > 0);\n        /* Make sure File Filename exists */\n        require(bytes(_fileName).length > 0);\n        /* Make sure Uploader Address exists */\n        require(msg.sender != address(0x0));\n        /* Make sure File Size is more than 0 */\n        require(_fileSize > 0);\n\n        /* Getting the current Time */\n        uint _uploadTime = now;\n        /* Getting the Signer from these Transaction */\n        address payable _uploader = msg.sender;\n        /* Incrementing the File Count */\n        filesCount++;\n\n        /* Creating a new File inside the Mapping */\n        files[filesCount] = File(filesCount, _fileHash, _fileSize, _fileType, _fileName, _fileDescription, _uploadTime, _uploader);\n\n        /* Trigger an Event when File is uploaded */\n        emit FileUploaded(filesCount, _fileHash, _fileSize, _fileType, _fileName, _fileDescription, _uploadTime, _uploader);\n    }\n}",
  "sourcePath": "C:/Users/stein/Downloads/SolidityIPFSFileUploadWeb3ReactJS/src/contracts/DStorage.sol",
  "compiler": {
    "name": "solc",
    "version": "0.5.16+commit.9c3226ce.Emscripten.clang"
  },
  "schemaVersion": "3.4.1",
  "updatedAt": "2021-06-15T13:13:05.992Z",
  "networkType": "ethereum",
  "devdoc": {
    "methods": {}
  },
  "userdoc": {
    "methods": {}
  }
}